{
  "contractName": "Zwallet",
  "abi": [
    {
      "inputs": [
        {
          "internalType": "address[]",
          "name": "_owners",
          "type": "address[]"
        },
        {
          "internalType": "uint256",
          "name": "_limit",
          "type": "uint256"
        }
      ],
      "stateMutability": "nonpayable",
      "type": "constructor"
    },
    {
      "anonymous": false,
      "inputs": [
        {
          "indexed": false,
          "internalType": "uint256",
          "name": "_id",
          "type": "uint256"
        },
        {
          "indexed": false,
          "internalType": "uint256",
          "name": "_approvals",
          "type": "uint256"
        },
        {
          "indexed": false,
          "internalType": "address",
          "name": "_approver",
          "type": "address"
        }
      ],
      "name": "ApprovalReceived",
      "type": "event"
    },
    {
      "anonymous": false,
      "inputs": [
        {
          "indexed": false,
          "internalType": "uint256",
          "name": "_id",
          "type": "uint256"
        }
      ],
      "name": "TransferApproved",
      "type": "event"
    },
    {
      "anonymous": false,
      "inputs": [
        {
          "indexed": false,
          "internalType": "uint256",
          "name": "_id",
          "type": "uint256"
        },
        {
          "indexed": false,
          "internalType": "uint256",
          "name": "_amount",
          "type": "uint256"
        },
        {
          "indexed": false,
          "internalType": "address",
          "name": "_initiator",
          "type": "address"
        },
        {
          "indexed": false,
          "internalType": "address",
          "name": "_receiver",
          "type": "address"
        }
      ],
      "name": "TransferRequestCreated",
      "type": "event"
    },
    {
      "inputs": [
        {
          "internalType": "uint256",
          "name": "",
          "type": "uint256"
        }
      ],
      "name": "owners",
      "outputs": [
        {
          "internalType": "address",
          "name": "",
          "type": "address"
        }
      ],
      "stateMutability": "view",
      "type": "function",
      "constant": true
    },
    {
      "inputs": [],
      "name": "deposit",
      "outputs": [],
      "stateMutability": "payable",
      "type": "function",
      "payable": true
    },
    {
      "inputs": [
        {
          "internalType": "uint256",
          "name": "_amount",
          "type": "uint256"
        },
        {
          "internalType": "address payable",
          "name": "_receiver",
          "type": "address"
        }
      ],
      "name": "createTransfer",
      "outputs": [],
      "stateMutability": "nonpayable",
      "type": "function"
    },
    {
      "inputs": [
        {
          "internalType": "uint256",
          "name": "_id",
          "type": "uint256"
        }
      ],
      "name": "approve",
      "outputs": [],
      "stateMutability": "nonpayable",
      "type": "function"
    },
    {
      "inputs": [],
      "name": "getTransferRequests",
      "outputs": [
        {
          "components": [
            {
              "internalType": "uint256",
              "name": "amount",
              "type": "uint256"
            },
            {
              "internalType": "address payable",
              "name": "receiver",
              "type": "address"
            },
            {
              "internalType": "uint256",
              "name": "approvals",
              "type": "uint256"
            },
            {
              "internalType": "bool",
              "name": "hasBeenSent",
              "type": "bool"
            },
            {
              "internalType": "uint256",
              "name": "id",
              "type": "uint256"
            }
          ],
          "internalType": "struct Zwallet.Transfer[]",
          "name": "",
          "type": "tuple[]"
        }
      ],
      "stateMutability": "view",
      "type": "function",
      "constant": true
    },
    {
      "inputs": [],
      "name": "getOwners",
      "outputs": [
        {
          "internalType": "address[]",
          "name": "",
          "type": "address[]"
        }
      ],
      "stateMutability": "view",
      "type": "function",
      "constant": true
    },
    {
      "inputs": [
        {
          "internalType": "address",
          "name": "_newOwner",
          "type": "address"
        }
      ],
      "name": "addOwner",
      "outputs": [],
      "stateMutability": "nonpayable",
      "type": "function"
    },
    {
      "inputs": [
        {
          "internalType": "uint256",
          "name": "newLimit",
          "type": "uint256"
        }
      ],
      "name": "changeApprovalLimit",
      "outputs": [],
      "stateMutability": "nonpayable",
      "type": "function"
    },
    {
      "inputs": [],
      "name": "getApprovalLimit",
      "outputs": [
        {
          "internalType": "uint256",
          "name": "",
          "type": "uint256"
        }
      ],
      "stateMutability": "view",
      "type": "function",
      "constant": true
    },
    {
      "inputs": [],
      "name": "getContractAddress",
      "outputs": [
        {
          "internalType": "address",
          "name": "",
          "type": "address"
        }
      ],
      "stateMutability": "view",
      "type": "function",
      "constant": true
    },
    {
      "inputs": [],
      "name": "getInvokingAddress",
      "outputs": [
        {
          "internalType": "address",
          "name": "",
          "type": "address"
        }
      ],
      "stateMutability": "view",
      "type": "function",
      "constant": true
    },
    {
      "inputs": [],
      "name": "getBalance",
      "outputs": [
        {
          "internalType": "uint256",
          "name": "",
          "type": "uint256"
        }
      ],
      "stateMutability": "view",
      "type": "function",
      "constant": true
    }
  ],
  "bytecode": "0x60806040523480156200001157600080fd5b50604051620018dc380380620018dc833981810160405281019062000037919062000336565b81600090805190602001906200004f9291906200005f565b508060018190555050506200039c565b828054828255906000526020600020908101928215620000db579160200282015b82811115620000da5782518260006101000a81548173ffffffffffffffffffffffffffffffffffffffff021916908373ffffffffffffffffffffffffffffffffffffffff1602179055509160200191906001019062000080565b5b509050620000ea9190620000ee565b5090565b5b8082111562000109576000816000905550600101620000ef565b5090565b6000604051905090565b600080fd5b600080fd5b600080fd5b6000601f19601f8301169050919050565b7f4e487b7100000000000000000000000000000000000000000000000000000000600052604160045260246000fd5b620001718262000126565b810181811067ffffffffffffffff8211171562000193576200019262000137565b5b80604052505050565b6000620001a86200010d565b9050620001b6828262000166565b919050565b600067ffffffffffffffff821115620001d957620001d862000137565b5b602082029050602081019050919050565b600080fd5b600073ffffffffffffffffffffffffffffffffffffffff82169050919050565b60006200021c82620001ef565b9050919050565b6200022e816200020f565b81146200023a57600080fd5b50565b6000815190506200024e8162000223565b92915050565b60006200026b6200026584620001bb565b6200019c565b90508083825260208201905060208402830185811115620002915762000290620001ea565b5b835b81811015620002be5780620002a988826200023d565b84526020840193505060208101905062000293565b5050509392505050565b600082601f830112620002e057620002df62000121565b5b8151620002f284826020860162000254565b91505092915050565b6000819050919050565b6200031081620002fb565b81146200031c57600080fd5b50565b600081519050620003308162000305565b92915050565b6000806040838503121562000350576200034f62000117565b5b600083015167ffffffffffffffff8111156200037157620003706200011c565b5b6200037f85828601620002c8565b925050602062000392858286016200031f565b9150509250929050565b61153080620003ac6000396000f3fe6080604052600436106100a75760003560e01c80637278a1fa116100645780637278a1fa146101bc578063a04ef145146101e7578063a0e67e2b14610212578063b759f9541461023d578063d0e30db014610266578063eece367014610270576100a7565b8063025e7c27146100ac57806312065fe0146100e95780632ce2cdf51461011457806332a2c5d01461013f5780634c12fa471461016a5780637065cb4814610193575b600080fd5b3480156100b857600080fd5b506100d360048036038101906100ce9190610f9c565b610299565b6040516100e0919061100a565b60405180910390f35b3480156100f557600080fd5b506100fe6102d8565b60405161010b9190611034565b60405180910390f35b34801561012057600080fd5b50610129610392565b604051610136919061100a565b60405180910390f35b34801561014b57600080fd5b5061015461044c565b604051610161919061100a565b60405180910390f35b34801561017657600080fd5b50610191600480360381019061018c919061108d565b610506565b005b34801561019f57600080fd5b506101ba60048036038101906101b591906110f9565b6106f2565b005b3480156101c857600080fd5b506101d1610806565b6040516101de9190611034565b60405180910390f35b3480156101f357600080fd5b506101fc6108c2565b6040516102099190611276565b60405180910390f35b34801561021e57600080fd5b506102276109b0565b6040516102349190611356565b60405180910390f35b34801561024957600080fd5b50610264600480360381019061025f9190610f9c565b610aec565b005b61026e610ea7565b005b34801561027c57600080fd5b5061029760048036038101906102929190610f9c565b610ea9565b005b600081815481106102a957600080fd5b906000526020600020016000915054906101000a900473ffffffffffffffffffffffffffffffffffffffff1681565b6000806000905060005b600080549050811015610379573373ffffffffffffffffffffffffffffffffffffffff166000828154811061031a57610319611378565b5b9060005260206000200160009054906101000a900473ffffffffffffffffffffffffffffffffffffffff1673ffffffffffffffffffffffffffffffffffffffff16141561036657600191505b8080610371906113d6565b9150506102e2565b50600115158115151461038b57600080fd5b4791505090565b6000806000905060005b600080549050811015610433573373ffffffffffffffffffffffffffffffffffffffff16600082815481106103d4576103d3611378565b5b9060005260206000200160009054906101000a900473ffffffffffffffffffffffffffffffffffffffff1673ffffffffffffffffffffffffffffffffffffffff16141561042057600191505b808061042b906113d6565b91505061039c565b50600115158115151461044557600080fd5b3391505090565b6000806000905060005b6000805490508110156104ed573373ffffffffffffffffffffffffffffffffffffffff166000828154811061048e5761048d611378565b5b9060005260206000200160009054906101000a900473ffffffffffffffffffffffffffffffffffffffff1673ffffffffffffffffffffffffffffffffffffffff1614156104da57600191505b80806104e5906113d6565b915050610456565b5060011515811515146104ff57600080fd5b3091505090565b6000805b6000805490508110156105a1573373ffffffffffffffffffffffffffffffffffffffff166000828154811061054257610541611378565b5b9060005260206000200160009054906101000a900473ffffffffffffffffffffffffffffffffffffffff1673ffffffffffffffffffffffffffffffffffffffff16141561058e57600191505b8080610599906113d6565b91505061050a565b5060011515811515146105b357600080fd5b7f099c4ec4ecfc26f7c8b27aeee5443f92120fa2c4e91ba6020369ae71a4d442786002805490508433856040516105ed949392919061147e565b60405180910390a160026040518060a001604052808581526020018473ffffffffffffffffffffffffffffffffffffffff1681526020016000815260200160001515815260200160028054905081525090806001815401808255809150506001900390600052602060002090600502016000909190919091506000820151816000015560208201518160010160006101000a81548173ffffffffffffffffffffffffffffffffffffffff021916908373ffffffffffffffffffffffffffffffffffffffff1602179055506040820151816002015560608201518160030160006101000a81548160ff021916908315150217905550608082015181600401555050505050565b6000805b60008054905081101561078d573373ffffffffffffffffffffffffffffffffffffffff166000828154811061072e5761072d611378565b5b9060005260206000200160009054906101000a900473ffffffffffffffffffffffffffffffffffffffff1673ffffffffffffffffffffffffffffffffffffffff16141561077a57600191505b8080610785906113d6565b9150506106f6565b50600115158115151461079f57600080fd5b6000829080600181540180825580915050600190039060005260206000200160009091909190916101000a81548173ffffffffffffffffffffffffffffffffffffffff021916908373ffffffffffffffffffffffffffffffffffffffff1602179055505050565b6000806000905060005b6000805490508110156108a7573373ffffffffffffffffffffffffffffffffffffffff166000828154811061084857610847611378565b5b9060005260206000200160009054906101000a900473ffffffffffffffffffffffffffffffffffffffff1673ffffffffffffffffffffffffffffffffffffffff16141561089457600191505b808061089f906113d6565b915050610810565b5060011515811515146108b957600080fd5b60015491505090565b60606002805480602002602001604051908101604052809291908181526020016000905b828210156109a757838290600052602060002090600502016040518060a0016040529081600082015481526020016001820160009054906101000a900473ffffffffffffffffffffffffffffffffffffffff1673ffffffffffffffffffffffffffffffffffffffff1673ffffffffffffffffffffffffffffffffffffffff168152602001600282015481526020016003820160009054906101000a900460ff16151515158152602001600482015481525050815260200190600101906108e6565b50505050905090565b60606000805b600080549050811015610a4d573373ffffffffffffffffffffffffffffffffffffffff16600082815481106109ee576109ed611378565b5b9060005260206000200160009054906101000a900473ffffffffffffffffffffffffffffffffffffffff1673ffffffffffffffffffffffffffffffffffffffff161415610a3a57600191505b8080610a45906113d6565b9150506109b6565b506001151581151514610a5f57600080fd5b6000805480602002602001604051908101604052809291908181526020018280548015610ae157602002820191906000526020600020905b8160009054906101000a900473ffffffffffffffffffffffffffffffffffffffff1673ffffffffffffffffffffffffffffffffffffffff1681526020019060010190808311610a97575b505050505091505090565b6000805b600080549050811015610b87573373ffffffffffffffffffffffffffffffffffffffff1660008281548110610b2857610b27611378565b5b9060005260206000200160009054906101000a900473ffffffffffffffffffffffffffffffffffffffff1673ffffffffffffffffffffffffffffffffffffffff161415610b7457600191505b8080610b7f906113d6565b915050610af0565b506001151581151514610b9957600080fd5b60001515600360003373ffffffffffffffffffffffffffffffffffffffff1673ffffffffffffffffffffffffffffffffffffffff168152602001908152602001600020600084815260200190815260200160002060009054906101000a900460ff16151514610c0757600080fd5b6000151560028381548110610c1f57610c1e611378565b5b906000526020600020906005020160030160009054906101000a900460ff16151514610c4a57600080fd5b6001600360003373ffffffffffffffffffffffffffffffffffffffff1673ffffffffffffffffffffffffffffffffffffffff168152602001908152602001600020600084815260200190815260200160002060006101000a81548160ff02191690831515021790555060028281548110610cc757610cc6611378565b5b90600052602060002090600502016002016000815480929190610ce9906113d6565b91905055507ffec9d12d15ee8c8b836a58347cb0d4980db38411bcd0b83662cee48fb20b6dee8260028481548110610d2457610d23611378565b5b90600052602060002090600502016002015433604051610d46939291906114c3565b60405180910390a160015460028381548110610d6557610d64611378565b5b90600052602060002090600502016002015410610ea357600160028381548110610d9257610d91611378565b5b906000526020600020906005020160030160006101000a81548160ff02191690831515021790555060028281548110610dce57610dcd611378565b5b906000526020600020906005020160010160009054906101000a900473ffffffffffffffffffffffffffffffffffffffff1673ffffffffffffffffffffffffffffffffffffffff166108fc60028481548110610e2d57610e2c611378565b5b9060005260206000209060050201600001549081150290604051600060405180830381858888f19350505050158015610e6a573d6000803e3d6000fd5b507fd9bbf1d8bef570b7e92ef1ba025425fc15915ae01f3d3be144cdc8be05442eb582604051610e9a9190611034565b60405180910390a15b5050565b565b6000805b600080549050811015610f44573373ffffffffffffffffffffffffffffffffffffffff1660008281548110610ee557610ee4611378565b5b9060005260206000200160009054906101000a900473ffffffffffffffffffffffffffffffffffffffff1673ffffffffffffffffffffffffffffffffffffffff161415610f3157600191505b8080610f3c906113d6565b915050610ead565b506001151581151514610f5657600080fd5b816001819055505050565b600080fd5b6000819050919050565b610f7981610f66565b8114610f8457600080fd5b50565b600081359050610f9681610f70565b92915050565b600060208284031215610fb257610fb1610f61565b5b6000610fc084828501610f87565b91505092915050565b600073ffffffffffffffffffffffffffffffffffffffff82169050919050565b6000610ff482610fc9565b9050919050565b61100481610fe9565b82525050565b600060208201905061101f6000830184610ffb565b92915050565b61102e81610f66565b82525050565b60006020820190506110496000830184611025565b92915050565b600061105a82610fc9565b9050919050565b61106a8161104f565b811461107557600080fd5b50565b60008135905061108781611061565b92915050565b600080604083850312156110a4576110a3610f61565b5b60006110b285828601610f87565b92505060206110c385828601611078565b9150509250929050565b6110d681610fe9565b81146110e157600080fd5b50565b6000813590506110f3816110cd565b92915050565b60006020828403121561110f5761110e610f61565b5b600061111d848285016110e4565b91505092915050565b600081519050919050565b600082825260208201905092915050565b6000819050602082019050919050565b61115b81610f66565b82525050565b61116a8161104f565b82525050565b60008115159050919050565b61118581611170565b82525050565b60a0820160008201516111a16000850182611152565b5060208201516111b46020850182611161565b5060408201516111c76040850182611152565b5060608201516111da606085018261117c565b5060808201516111ed6080850182611152565b50505050565b60006111ff838361118b565b60a08301905092915050565b6000602082019050919050565b600061122382611126565b61122d8185611131565b935061123883611142565b8060005b8381101561126957815161125088826111f3565b975061125b8361120b565b92505060018101905061123c565b5085935050505092915050565b600060208201905081810360008301526112908184611218565b905092915050565b600081519050919050565b600082825260208201905092915050565b6000819050602082019050919050565b6112cd81610fe9565b82525050565b60006112df83836112c4565b60208301905092915050565b6000602082019050919050565b600061130382611298565b61130d81856112a3565b9350611318836112b4565b8060005b8381101561134957815161133088826112d3565b975061133b836112eb565b92505060018101905061131c565b5085935050505092915050565b6000602082019050818103600083015261137081846112f8565b905092915050565b7f4e487b7100000000000000000000000000000000000000000000000000000000600052603260045260246000fd5b7f4e487b7100000000000000000000000000000000000000000000000000000000600052601160045260246000fd5b60006113e182610f66565b91507fffffffffffffffffffffffffffffffffffffffffffffffffffffffffffffffff821415611414576114136113a7565b5b600182019050919050565b6000819050919050565b600061144461143f61143a84610fc9565b61141f565b610fc9565b9050919050565b600061145682611429565b9050919050565b60006114688261144b565b9050919050565b6114788161145d565b82525050565b60006080820190506114936000830187611025565b6114a06020830186611025565b6114ad6040830185610ffb565b6114ba606083018461146f565b95945050505050565b60006060820190506114d86000830186611025565b6114e56020830185611025565b6114f26040830184610ffb565b94935050505056fea26469706673582212209c528b07eba4e2427562569314222c88f0cf892d005301dd80480a87b98313a864736f6c63430008090033",
  "immutableReferences": {},
  "source": "pragma solidity ^0.8.9;\npragma abicoder v2;\n\ncontract Zwallet {\n    address[] public owners; //list of all owner addresses\n    uint256 limit; //How many approvals for a sanction?\n\n    struct Transfer {\n        uint256 amount;\n        address payable receiver;\n        uint256 approvals;\n        bool hasBeenSent;\n        uint256 id;\n    }\n\n    /** START: For DAPs to read the notification */\n    event TransferRequestCreated(\n        uint256 _id,\n        uint256 _amount,\n        address _initiator,\n        address _receiver\n    );\n    event ApprovalReceived(uint256 _id, uint256 _approvals, address _approver);\n    event TransferApproved(uint256 _id);\n    /** END: For DAPs to read the notification */\n\n    Transfer[] transferRequests;\n\n    mapping(address => mapping(uint256 => bool)) approvals;\n\n    //Should only allow people in the owners list to continue the execution.\n    modifier onlyOwners() {\n        bool owner = false;\n        for (uint256 i = 0; i < owners.length; i++) {\n            if (owners[i] == msg.sender) {\n                owner = true;\n            }\n        }\n        require(owner == true);\n        _;\n    }\n\n    //Should initialize the owners list and the limit\n    constructor(address[] memory _owners, uint256 _limit) {\n        owners = _owners;\n        limit = _limit;\n    }\n\n    //Empty function\n    function deposit() public payable {}\n\n    //Create an instance of the Transfer struct and add it to the transferRequests array\n    function createTransfer(uint256 _amount, address payable _receiver)\n        public\n        onlyOwners\n    {\n        emit TransferRequestCreated(\n            transferRequests.length,\n            _amount,\n            msg.sender,\n            _receiver\n        );\n        transferRequests.push(\n            Transfer(_amount, _receiver, 0, false, transferRequests.length)\n        );\n    }\n\n    /**\n     * Approve a specific transaction\n     */\n    function approve(uint256 _id) public onlyOwners {\n        require(approvals[msg.sender][_id] == false);\n        require(transferRequests[_id].hasBeenSent == false);\n\n        approvals[msg.sender][_id] = true;\n        transferRequests[_id].approvals++;\n\n        emit ApprovalReceived(_id, transferRequests[_id].approvals, msg.sender);\n\n        if (transferRequests[_id].approvals >= limit) {\n            transferRequests[_id].hasBeenSent = true;\n            transferRequests[_id].receiver.transfer(\n                transferRequests[_id].amount\n            );\n            emit TransferApproved(_id);\n        }\n    }\n\n    //Should return all transfer requests\n    function getTransferRequests() public view returns (Transfer[] memory) {\n        return transferRequests;\n    }\n\n    function getOwners() public view onlyOwners returns (address[] memory) {\n        return owners;\n    }\n\n    function addOwner(address _newOwner) public onlyOwners {\n        owners.push(_newOwner);\n    }\n\n    function changeApprovalLimit(uint256 newLimit) public onlyOwners {\n        limit = newLimit;\n    }\n\n    function getApprovalLimit() public view onlyOwners returns (uint256) {\n        return limit;\n    }\n\n    function getContractAddress() public view onlyOwners returns (address) {\n        return address(this);\n    }\n\n    function getInvokingAddress() public view onlyOwners returns (address) {\n        return msg.sender;\n    }\n\n    function getBalance() public view onlyOwners returns (uint256) {\n        return address(this).balance;\n    }\n}\n",
  "sourcePath": "/Users/manojkelath/Documents/smartcontracts/contracts/Zwallet.sol",
  "compiler": {
    "name": "solc",
    "version": "0.8.9+commit.e5eed63a.Emscripten.clang"
  },
  "schemaVersion": "3.4.3",
  "updatedAt": "2021-10-05T22:50:05.286Z",
  "networkType": "ethereum",
  "devdoc": {
    "kind": "dev",
    "methods": {},
    "version": 1
  },
  "userdoc": {
    "events": {
      "TransferRequestCreated(uint256,uint256,address,address)": {
        "notice": "START: For DAPs to read the notification "
      }
    },
    "kind": "user",
    "methods": {
      "approve(uint256)": {
        "notice": "Approve a specific transaction"
      }
    },
    "version": 1
  }
}